:020000040800F2
:10000000880B002045010008B50D00084D080008C8
:10001000B10D000877020008E72600080000000084
:10002000000000000000000000000000E9140008CB
:1000300003030008000000009512000819160008CC
:100040005F0100085F0100085F0100085F01000810
:100050005F0100085F0100085F0100085F01000800
:100060005F0100085F0100085F0100085F010008F0
:100070005F0100085F0100085F0100085F010008E0
:100080005F0100085F0100085F0100085F010008D0
:100090005F0100085F0100085F0100085F010008C0
:1000A0005F0100085F0100085F0100085F010008B0
:1000B000591A00085F0100085F0100085F0100088D
:1000C0005F0100085F0100085F0100085F01000890
:1000D0005F010008D52200085F010008C92300085D
:1000E0005F0100085F0100085F0100085F01000870
:1000F0005F0100085F0100085F0100085F01000860
:100100005F0100085F0100085F0100085F0100084F
:100110005F0100085F0100085F0100085F0100083F
:100120005F0100085F0100085F0100085F0100082F
:10013000DFF80CD000F06EF800480047594B00087B
:10014000880B00200648804706480047FEE7FEE788
:10015000FEE7FEE7FEE7FEE7FEE7FEE7FEE7FEE777
:10016000591600083101000840EA01039B0703D03B
:1001700009E008C9121F08C0042AFAD203E011F8E6
:10018000013B00F8013B521EF9D27047D2B201E0A8
:1001900000F8012B491EFBD270470022F6E710B58C
:1001A00013460A4604461946FFF7F0FF204610BDE5
:1001B0002DE9F05F0546002092469B46884606469C
:1001C000814640241BE0284641464746224600F02F
:1001D00042F853465A46C01A914110D31146184668
:1001E000224600F029F82D1A67EB01084F462246F7
:1001F0000120002100F020F817EB00094E41201EDD
:10020000A4F10104DFDC484631462A464346BDE8F6
:10021000F09F0000064C074D06E0E06840F0010347
:1002200094E8070098471034AC42F6D3FFF784FFF8
:10023000FC7000081C710008202A04DB203A00FA38
:1002400002F1002070479140C2F1200320FA03F32D
:10025000194390407047202A04DB203A21FA02F02B
:100260000021704721FA02F3D040C2F120029140F0
:1002700008431946704700BFFEE72DE9F0410746E5
:10028000884615460421052000F02DF800210120A4
:1002900002F02CFA80210A2001F027F9002405E061
:1002A000395D092002F022FA601CC4B24445F7DB34
:1002B0000321012002F01AFAFF2400BF052001F0FB
:1002C000C9F80646601EC4B21CB106F0040000283E
:1002D000F4D0222001F0BEF82870212001F0BAF8F5
:1002E0006870BDE8F08170B505460C4600262846CA
:1002F00001F0B0F8064626EA0401284602F0F6F9B5
:1003000070BD70472DE9FF4F85B00F469A46DDF866
:10031000488000250024A34601260020039000BF4A
:1003200027E0002422E0681C00EB8001059800EB28
:100330008101601C085C372807D0012005EB85018E
:10034000894A02EB8101085506E0372005EB85015B
:10035000854A02EB81010855A54206D1002005EB34
:100360008501814A02EB81010855641CBC42DADB3D
:100370006D1CBD42D5DB002520E000241BE0A5421A
:1003800006D1002005EB8501774A02EB8101085573
:1003900005EB8500744901EB8000005D05EB8501EC
:1003A000724A02EB8101085505EB8501704A02EBA8
:1003B00081010C55641CBC42E1DB6D1CBD42DCDBE1
:1003C0004FF0000B4EE04FF0000947E00020049092
:1003D0003FE009EB8900654901EB800010F80B1044
:1003E0000BEB8B00614A02EB80020498105C014425
:1003F00009EB89005D4A02EB80020498105C81429F
:1004000024DA09EB8900594901EB800010F80B1040
:100410000BEB8B00554A02EB80020498105C0844F9
:10042000C1B209EB8900514A02EB800204981154D1
:1004300009EB89004E4901EB800010F80B1009EB25
:1004400089004B4A02EB8002049811540498401C26
:1004500004900498B842BCDB09F10109B945B5DB49
:100460000BF1010BBB45AEDB0798401E00EB800093
:100470003E4901EB8001AAF10100085C37281EDA31
:100480003CA00C21CDE900103C48438802880A2199
:10049000084600F0CFFB00200C21CDE900100798A2
:1004A000401E00EB8000314901EB8001AAF1010000
:1004B0000A5C03230A21322000F0EFFB12E005EB77
:1004C00085002A4901EB8000005D37280ADB2CA05B
:1004D0000C21CDE900102948438802880A210846EA
:1004E00000F0A8FB0798401E00EB8000204901EBBC
:1004F0008001AAF10100085C401C0390079888F86D
:1005000000000FE0039808F806000398401E00EB77
:100510008000174901EB8001AAF10100085C401C32
:100520000390761C03985045ECD108F806A00026ED
:1005300012E018F806000390039800EB800105987C
:1005400000EB8101701C18F80000085C18F8061018
:10055000084408F80600761C701C18F800000028F3
:10056000E7D109B0BDE8F08FC4030020A40000204B
:10057000340200206C656E6774683A000400002045
:100580006E6F200051B18200A2F1C042126842F0A9
:1005900001038200A2F1C042136009E08200A2F1CF
:1005A000C0421268034B1A408300A3F1C0431A6093
:1005B00070470000FEFF0F00D0E901121143C2682E
:1005C0001143026911434269114382691143C269AF
:1005D0001143026A1143426A1143826A1143C26A9B
:1005E0001143026B114302689200A2F1C0421160F4
:1005F000816808290BD101688900A1F1C04109680F
:1006000041F0400201688900A1F1C0410A60416BDC
:100610000968426B526841EA0211426B926841EAF2
:100620000221426B928941EA0241426B128A41EAFD
:100630000251426B127D41EA0261426B92691143A1
:100640000268521C9200A2F1C0421160C16AB1F569
:10065000804F1BD1816B0968826B526841EA02119D
:10066000826B926841EA0221826B128A41EA02514E
:10067000826B127D41EA0261826B926911430268CA
:100680009200A2F1C042C2F8041107E06FF070427C
:1006900001688900A1F1C041C1F8042170472DE92A
:1006A000F0410246002500260020002300240027F8
:1006B00091F803C00CF00F0591F803C00CF0100C7A
:1006C000BCF1000F03D091F802C04CEA050591F887
:1006D00000C0BCF1000F31D0146800202BE04FF0B7
:1006E000010C0CFA00F3B1F800C00CEA03069E42BC
:1006F00020D183004FF00F0C0CFA03F7BC4305FA2E
:1007000003FC4CEA040491F803C0BCF1280F06D1A5
:100710004FF0010C0CFA00FCC2F814C00AE091F88A
:1007200003C0BCF1480F05D14FF0010C0CFA00FCDE
:10073000C2F810C0401C0828D1D31460B1F800C022
:10074000BCF1FF0F34DD546800202EE000F1080CEE
:100750004FF0010808FA0CF3B1F800C00CEA0306E8
:100760009E4221D183004FF00F0C0CFA03F7BC43DB
:1007700005FA03FC4CEA040491F803C0BCF1280F0D
:1007800005D100F1080C08FA0CF8C2F8148091F8B1
:1007900003C0BCF1480F07D100F1080C4FF001086D
:1007A00008FA0CF8C2F81080401C0828CED3546018
:1007B000BDE8F081F0B50A460023002400210025A1
:1007C00000F00046B6F1004F02D11D4EF16901E084
:1007D0001B4E7168C0F3034583B200F44016B6F5B2
:1007E000401F08D121F07061154E766826F07066C2
:1007F000134F7E6012E000F48016B6F5801F06D11C
:10080000032606FA05F4A14341F0706106E0460DA7
:10081000360103FA06F6B14341F0706122B1460D8C
:10082000360103FA06F6314300F00046B6F1004FF8
:1008300002D1034EF16101E0014E7160F0BD000094
:1008400000000140416170470161704700BFFEE751
:1008500010B5024600200BE0002106E0372300EB34
:10086000800402EB84046354491C1429F6DB401C09
:100870001428F1DB10BD000008B50121442000F070
:100880005FFD0120ADF8000028208DF80300032053
:100890008DF8020069460848FFF701FF1C20ADF8FB
:1008A000000048208DF8030003208DF802006946FF
:1008B0000248FFF7F4FE08BD00080140001801409F
:1008C00010B5044622480078012826D12148006846
:1008D00001280AD02048006838B11F48001F00686E
:1008E00018B11D48001D0068B8B90A2002F098F937
:1008F00000201749087017480068012800D110BD72
:100900001548006808B90220F9E71348001F00687D
:1009100008B90320F3E70420F1E70E48006878B92E
:100920000D48006801280BD10B48001F0068012802
:1009300006D10948001D0068012801D1044908704A
:10094000012C02D10120024908700020D7E70000E5
:100950000D000020000121420C01234270B5064623
:100960000F484088401E83B20D480088401E82B266
:100970000021084600F068F800240CE0002504E09F
:10098000304600F0F5F9681C85B205484088A84259
:10099000F6DC601C84B202480088A042EEDC70BD28
:1009A0000400002000B50246B2B9012000F0D4F9DD
:1009B0004FF4807000F0D6F9032000F0CDF941F239
:1009C000300000F0CFF94FF4C8700E494880F02095
:1009D00008800020887114E0012000F0BDF900209B
:1009E00000F0C0F9032000F0B7F941F2380000F040
:1009F000B9F9F020034948804FF4C87008800120FD
:100A0000887100BD0400002070B504460D461646EE
:100A10002B4622462946204600F016F8304600F0C4
:100A2000A7F970BD10B50246012000E050430B1E2F
:100A3000A1F10104E1B2F9D110BD00000148008824
:100A4000704700000008006C30B505460C462E4883
:100A5000807950BB4FF4047000F07EF9284600F016
:100A600081F940F2112000F077F9104600F07AF990
:100A700040F2122000F070F9204600F073F940F2C5
:100A8000132000F069F9184600F06CF94FF400707B
:100A900000F062F9284600F065F940F2012000F00C
:100AA0005BF9204600F05EF929E040F2122000F0E8
:100AB00053F9284600F056F940F2132000F04CF9A3
:100AC000104600F04FF94FF4047000F045F920464D
:100AD00000F048F940F2112000F03EF9184600F00D
:100AE00041F940F2012000F037F9284600F03AF9C8
:100AF0004FF4007000F030F9204600F033F940F276
:100B0000022000F029F930BD040000202DE9F84F43
:100B100080460E4617461C46B3462046E31704EBB4
:100B20005373DB1021464FEAE47C04EB5C7C4FEA14
:100B3000EC0CA4EBCC0CBCF1000F02D04FF0010C7C
:100B400001E04FF0000C6344224604EBD27C4FEAF4
:100B50006C0C03FB0CF3DBB20093A7F12000C7B2CF
:100B6000002556E00C2C07D107EB47002B4901EB81
:100B7000800010F8059013E0102C05D1284800EBF8
:100B8000071010F805900BE0182C07D107EBC700F1
:100B9000244901EB800010F8059001E0BDE8F88FD2
:100BA0004FF0000A2FE009F0800030B11E480288A3
:100BB00031464046FFF728FF07E00A9828B91B484E
:100BC000028831464046FFF71FFF4FEA49604FEA6F
:100BD0001069701C86B216484088B04200DCDDE720
:100BE000A6EB0B00A0420AD15E4608F101001FFAF5
:100BF00080F80F480088404500DCCFE706E00AF1A6
:100C0000010000F0FF0ABAF1080FCCDB00BF681C3E
:100C1000C5B200988542A5DB00BFBFE714550008A8
:100C200088590008785F00080000002002000020BA
:100C3000040000202DE9F84704460D4690469946E9
:100C4000DDE9096704F0FF0A08EB04001FFA80F8E9
:100C500009EB05001FFA80F916E0444502DB544613
:100C6000A81985B24D4500DB14E0002000903A78C9
:100C7000334629462046FFF749FF304606EBD07140
:100C800004EB61018CB27F1C38787E2802DC387856
:100C90002028E2DA00BFBDE8F8872DE9FF4F82B0D7
:100CA000064692461F46DDE90F48002001900025C8
:100CB0004DE0781B401EC1B20A20FFF7B3FEBAFB1D
:100CC000F0F00A21B0FBF1F201FB1209019850BBD0
:100CD000781EA84227DDB9F1000F22D108F080006C
:100CE00078B108F00100A34604EBDB71491001FB69
:100CF0000561009088B2234630220399FFF706FF72
:100D00000EE008F00100A34604EBDB71491001FB83
:100D10000561009088B2234620220399FFF7F6FE72
:100D200013E00120019008F00100A34604EBDB7101
:100D3000491001FB0561009088B209F13001CAB287
:100D400023460399FFF7E2FE00BF681CC5B2BD420F
:100D5000AFDB06B0BDE8F08F0149088070470000A6
:100D6000FE07006C01490880704700000008006C15
:100D700001490880704700000008006C08B5012197
:100D8000102000F0DDFAFF20ADF8000010208DF8F3
:100D9000030003208DF8020069460448FFF77FFC3A
:100DA000FF210248FFF750FD08BD00000010014080
:100DB00000BFFEE77047000070B5002100230F223E
:100DC000C47804B3154C246804F4E064C4F5E0640A
:100DD000210AC1F10403CA40447804FA03F184787B
:100DE0001440214309010E4C0678A155047804F003
:100DF0001F050124AC4005786D11AD0005F1E0251B
:100E0000C5F8004109E0047804F01F050124AC4056
:100E1000044D0678761145F8264070BD0CED00E0D3
:100E200000E400E080E100E002490143024A116071
:100E3000704700000000FA050CED00E010B503213A
:100E40001420FFF750FA10BD10B5142000F002FB7B
:100E5000044604F0030018B90321142000F045FBF8
:100E600010BDF0B587B00546002708210846FFF7FA
:100E70003AFA00210D2001F039FC80210E20FFF705
:100E800032FA93208DF8040020208DF8050006A882
:100E900001AB022201A900900C2000F051F8064697
:100EA00086B9002407E001A8005D285501A8005D6F
:100EB0004740601CC4B2042CF5DB01A8005DB842B9
:100EC00000D0FE2680210E2000F00FFB304607B038
:100ED000F0BD2DE9F04387B006460F46904699468F
:100EE0008DF804608DF80570002406E018F80410F1
:100EF00001AAA01C1154601CC4B2062CF6DB00240D
:100F000007E019F8041001AA04F108001154601C4C
:100F1000C4B2062CF5DB06A801AB0C2201A9009097
:100F20000E2000F00DF805462DB9082000F092FAC9
:100F300000F0080000B9FE25284607B0BDE8F083A0
:100F40002DE9FE4F0646884691469A46DDF830B0B8
:100F5000FE2002900020019000900C2E06D00E2E54
:100F600009D1122001901020009005E07720019017
:100F70003020009000E000BF00BF019840F08001E9
:100F8000022001F0B3FB80210420FFF7ACF900211F
:100F9000012001F0ABFB80210A2000F0A6FA002519
:100FA00005E018F80510092001F0A0FB6D1C4D4567
:100FB000F7D33146012001F099FB0C2E03D180219B
:100FC0000D2000F092FA4FF4167500BF042000F0D7
:100FD00041FA04466D1E35B104F0010018B90098BD
:100FE00020400028F2D080210D20FFF77CF995B336
:100FF000062000F02FFA00F01B0068BB00200290D2
:101000000198204000F0010008B1FF2002900C2E52
:1010100024D10A2000F01EFA04460C2000F01AFA2F
:1010200000F007072FB1601E07EBC000CBF80000EF
:1010300002E0E000CBF8000004B90124122C00DD2E
:101040001224002505E0092000F004FA0AF8050042
:101050006D1CA542F7D301E0FE20029080210C20F8
:1010600000F043FA0021012001F040FB0298BDE8A6
:10107000FE8FF0B587B005460E4630208DF804008F
:101080008DF805500DF10602022101A8FFF7F5F8D1
:1010900006A801AB042201A900900C20FFF750FF25
:1010A000074667B90698902809D1002404E001A8F2
:1010B000005D3055601CC4B2102CF8DB00E0FE2748
:1010C000384607B0F0BD70B588B005460C4608211B
:1010D0000846FFF708F907210D2001F007FB03215F
:1010E000142000F002FA8DF8085007A802AB012284
:1010F00002A900900C20FFF723FF06464EB907987F
:10110000102806D19DF8080020709DF80900607035
:1011100000E0FE26304608B070BD000010B501208A
:10112000194908600A2001F0A1FD00201749C1F803
:1011300090010A2001F09AFD0120134908600A205D
:1011400001F094FD0F21012001F0D0FA0A2001F0F6
:101150008DFD3D21112001F0C9FA1E212D2001F045
:10116000C5FA00212C2001F0C1FA8D212A2001F0BE
:10117000BDFA3E212B2001F0B9FA4021152001F0E3
:10118000B5FA002010BD0000908123420080234268
:1011900070B588B0054693208DF8080070208DF852
:1011A000090000208DF80E0000240BE0295D02AA42
:1011B000A01C11549DF80E00295D48408DF80E00CA
:1011C000601CC4B2042CF1DB0DF10F02072102A850
:1011D000FFF753F808210846FFF785F807A802AB88
:1011E000092202A900900C20FFF7AAFE064626B9A4
:1011F0000798182801D1002600E0FE26304608B0E6
:1012000070BDF0B587B006460F46A0208DF80400EB
:101210008DF805600DF10602022101A8FFF72DF8F7
:1012200006A801AB042201A900900C20FFF788FE5C
:10123000054645B90698042805D19DF8040000F03C
:101240000F000A2800D0FE250DBB002404E0385D05
:1012500001A90855601CC4B2102CF8DB05AA1021A6
:1012600001A8FFF70AF806A801AB122201A9009015
:101270000C20FFF765FE054645B90698042805D100
:101280009DF8040000F00F000A2800D0FE25284633
:1012900007B0F0BD7047000008B50121802000F0C4
:1012A0004FF81720ADF8000010208DF80300032040
:1012B0008DF8020069460948FFF7F1F91721074840
:1012C000FFF7C2FA0820ADF8000048208DF80300AF
:1012D00069460248FFF7E3F908BD0000001C014021
:1012E00029B1064A52690243044B5A6104E0034A99
:1012F00052698243014B5A6170470000001002405E
:1013000029B1064AD2690243044BDA6104E0034A78
:10131000D2698243014BDA6170470000001002403D
:1013200029B1064A12690243044B1A6104E0034AD8
:1013300012698243014B1A6170470000001002409D
:1013400029B1064A92690243044B9A6104E0034AB8
:1013500092698243014B9A6170470000001002407D
:1013600029B1064AD2680243044BDA6004E0034A1A
:10137000D2688243014BDA607047000000100240DF
:1013800030B500210022002400232D4D6D6805F0AA
:101390000C0121B1042905D0082923D105E0294DEC
:1013A000056022E0274D05601FE0254D6D6805F4BE
:1013B0007012234D6D6805F48034022505EB9242CE
:1013C0001CB9214D554305600BE01D4D6D6805F4BA
:1013D00000351DB11C4D5543056002E0194D5543C4
:1013E000056002E0174D056000BF00BF144D6D6839
:1013F00005F0F0010909154D6B5C0568DD4045609D
:101400000F4D6D6805F4E061090A104D6B5C45688D
:10141000DD4085600A4D6D6805F46051C90A0B4DC9
:101420006B5C4568DD40C560054D6D6805F4404165
:10143000890B074D6B5CC568B5FBF3F5056130BDE5
:101440000010024000127A0000093D005200002006
:10145000620000202DE9F0410646002500202049C9
:1014600008602049C1F880017E2000EA460040F073
:101470008007082412E0C7F3C0101949091D08604D
:1014800001201849C1F884017806070E002014498C
:1014900008600A2001F0EAFB601EC4B2002CEADCFE
:1014A000082410E001200E4908606806050E0D486A
:1014B000D0F80C012843C5B2002008600A2001F0D2
:1014C000D5FB601EC4B2002CECDC01200449091FCE
:1014D00008600449C1F884012846BDE8F081000095
:1014E0008481234200802342704770B505460C4634
:1014F00000262846FFF7AEFF064646EA04012846C6
:1015000001F0F4F870BD10B500F002F810BD000055
:101510000CB50020019000903348006840F4803002
:101520003149086000BF3048006800F40030009086
:101530000198401C0190009818B90198B0F5A06F6F
:10154000F1D12948006800F4003010B1012000906A
:1015500001E0002000900098012843D12348006852
:1015600040F01000214908600846006820F00300A0
:1015700008600846006840F0020008601A484068A9
:10158000194948600846406848600846406840F489
:10159000806048600846406820F47C104860084637
:1015A000406840F4E81048600846006840F08070E9
:1015B000086000BF0C48006800F000700028F9D0F7
:1015C0000948406820F00300074948600846406821
:1015D00040F00200486000BF0348406800F00C0083
:1015E0000828F9D10CBD0000001002400020024084
:1015F000042808D14FF0E021096941F004014FF0BF
:10160000E022116107E04FF0E021096921F00401B7
:101610004FF0E022116170477047000010B504469A
:101620006FF00400FFF7E4FFE11704EB5171C1F321
:10163000C701074A11701046007800EB4001C1EB6A
:10164000C0104FF6FF7101EAC0000249088010BDCA
:101650004C0000204E00002010B51348006840F0F8
:1016600001001149086008464068104908400E49C9
:101670004860084600680E4908400B490860084663
:10168000006820F4802008600846406820F4FE00CE
:1016900048604FF41F008860FFF735FF4FF000608F
:1016A0000449086010BD0000001002400000FFF86F
:1016B000FFFFF6FE08ED00E000B59DB00121080235
:1016C000FFF70EFE01200790002008900F200990E0
:1016D00000200A900B900C900D9000900190032038
:1016E00002900020039004900590069006200E9032
:1016F00000200F9010901020119000201290149054
:101700001390159016904FF4805017900020189069
:101710004FF48040199000201A9007A81B90CDF834
:1017200070D00EA8FEF748FF01210620FEF72AFF21
:101730001DB000BD08B501214FF4B070FFF700FEE9
:101740004CF23370ADF8000018208DF80300032030
:101750008DF8020069461048FEF7A1FF4FF6807031
:10176000ADF8000018208DF8030003208DF802006A
:1017700069460A48FEF793FF41F20100ADF8000008
:1017800018208DF8030003208DF8020069460448F4
:10179000FEF785FF08BD000000140140001801405D
:1017A0000020014010B5FFF7C5FFFFF785FF32208D
:1017B00001F036FA0020FFF7CFFAFFF73FF9A14911
:1017C000888008468188A0A000F0D8FF0020FFF79D
:1017D000C3FA0020FFF7C6FA0020FFF7BDFA002089
:1017E000FFF7C0FA0020FFF7B7FA0020FFF7BAFAB8
:1017F0004FF48060FFF7B0FA4FF4C440FFF7B2FA3D
:101800000820FFF7A9FA40F60800FFF7ABFA01201D
:10181000FFF7A2FA4FF48070FFF7A4FA0220FFF757
:101820009BFA4FF48070FFF79DFA0320FFF794FABC
:1018300041F23000FFF796FA0820FFF78DFA40F6E4
:101840000800FFF78FFA4FF44070FFF785FA0C207D
:10185000FFF788FA40F20130FFF77EFA45F60B20D9
:10186000FFF780FA40F20230FFF776FA40F60610F2
:10187000FFF778FA40F20330FFF76EFA41F21700F3
:10188000FFF770FA4FF44170FFF766FA4FF40C500F
:10189000FFF768FA40F20530FFF75EFA4FF4B850F0
:1018A000FFF760FA40F20630FFF756FA46F20930C9
:1018B000FFF758FA40F20730FFF74EFA40F60940BA
:1018C000FFF750FA4FF44270FFF746FA41F20C006E
:1018D000FFF748FA40F20930FFF73EFA42F23220B1
:1018E000FFF740FA1020FFF737FA1420FFF73AFA13
:1018F0001120FFF731FA40F20110FFF733FA4FF4ED
:101900008070FFF729FA4FF40C70FFF72BFA3220A2
:1019100001F086F940F20110FFF71EFA40F247206D
:10192000FFF720FA4FF4FA7401E0601E84B2002C35
:10193000FBDC322001F074F940F20310FFF70CFADF
:101940004FF42060FFF70EFA4FF4FA7401E0601EC6
:1019500084B2002CFBDC0A2001F062F94FF4207005
:10196000FFF7FAF94FF2FF00FFF7FCF9322001F020
:1019700057F94FF4FA7401E0601E84B2002CFBDCCE
:101980004FF48170FFF7E8F94BF2B010FFF7EAF976
:101990004FF4FA7401E0601E84B2002CFBDC3220AC
:1019A00001F03EF94FF40470FFF7D6F90020FFF77D
:1019B000D9F940F21120FFF7CFF9EF20FFF7D2F964
:1019C00040F21220FFF7C8F90020FFF7CBF940F2F0
:1019D0001320FFF7C1F940F28F10FFF7C3F94FF45E
:1019E0000070FFF7B9F90020FFF7BCF940F20120C1
:1019F000FFF7B2F90020FFF7B5F940F20140FFF719
:101A0000ABF90020FFF7AEF90720FFF7A5F94FF477
:101A10008070FFF7A7F94FF4FA7401E0601E84B2FA
:101A2000002CFBDC322001F0FBF840F20220FFF733
:101A300093F90020FEF7B6FF4FF6FF70FEF78EFF1A
:101A400010BD000004000020204C43442049443ACB
:101A500025780D0A0000000010B50121880700F06C
:101A600069FA70B1094800683221B0FBF1F201FB5C
:101A7000120020B90020FEF723FF0549087002F08C
:101A8000F1FB0121880700F051F910BD340000205E
:101A90000C0000207FB505460C4601210846FFF7E3
:101AA0002FFCADF80850ADF804400020ADF80A0056
:101AB000ADF8060001A94FF0804000F0B9FB01220B
:101AC0001146900700F047FA0121880700F02EF92F
:101AD0001C208DF8000002208DF8010003208DF8F5
:101AE000020001208DF803006846FFF765F9012127
:101AF000880700F01EF97FBD30B597B005460C464B
:101B000001211020FFF71CFC01210220FFF7F8FB48
:101B100001210846FFF714FC4020ADF80C0003201B
:101B20008DF80E0018208DF80F0003A94548FEF728
:101B3000B6FD8020ADF8080003208DF80A001820BB
:101B40008DF80B0002A93F48FEF7A9FD4FF4807005
:101B5000ADF8040003208DF8060018208DF807006A
:101B600001A93848FEF79BFD4FF40070ADF8000066
:101B700003208DF8020018208DF8030069463148D3
:101B8000FEF78DFD01213048FEF714FEADF85450EC
:101B9000ADF850400020ADF85600ADF8520014A941
:101BA0002A4800F045FB6020ADF840000220ADF867
:101BB00048000120ADF8420010A9244800F0D4F9F3
:101BC0006020ADF830000220ADF838000120ADF8FB
:101BD00032000CA91D4800F01DFA6020ADF820006D
:101BE0000220ADF828000120ADF8220008A917480E
:101BF00000F070FA6020ADF810000220ADF8180077
:101C00000120ADF8120004A9104800F0BDFA082127
:101C10000E4800F0F5F908210C4800F04DFA0821B3
:101C20000A4800F0A7FA0821084800F0EBFA012161
:101C3000064800F06FF80121044800F07AF817B068
:101C400030BD000000100140000C1A0000040040EC
:101C500030B589B005460C4601210820FFF770FB1E
:101C600001210420FFF74CFB284800F06FF84FF4E7
:101C70007070ADF8040003208DF8060018208DF870
:101C8000070001A92248FEF70AFDADF81C50ADF887
:101C900018400020ADF81E00ADF81A0006A91B4838
:101CA00000F0C6FA6020ADF808000220ADF8100080
:101CB0000120ADF80A0002A9144800F055F90821E6
:101CC000124800F09DF902A9104800F0A3F908217C
:101CD0000E4800F0F1F902A90C4800F0FBF90821C8
:101CE0000A4800F047FA02A9084800F04DFA082116
:101CF000064800F087FA0121044800F00BF80121A2
:101D0000024800F016F809B030BD0000000800409D
:101D1000000C014021B1028842F08002028004E000
:101D200002884FF67F731A4002807047CA430282CE
:101D3000704721B1028842F00102028004E002886B
:101D40004FF6FE731A4002807047000010B504463B
:101D50006848844208D10121C014FFF701FB00212B
:101D6000E014FFF7FDFAC4E0B4F1804F08D101217F
:101D70000846FFF7D5FA00210120FFF7D1FAB8E0B5
:101D80005D48844208D101210220FFF7C9FA0021F1
:101D90000220FFF7C5FAACE05848844208D101217F
:101DA0000420FFF7BDFA00210420FFF7B9FAA0E0F4
:101DB0005348844208D101210820FFF7B1FA0021DD
:101DC0000820FFF7ADFA94E04E48844208D1012183
:101DD0001020FFF7A5FA00211020FFF7A1FA88E0F4
:101DE0004948844208D101212020FFF799FA0021B7
:101DF0002020FFF795FA7CE04448844208D1012175
:101E00004014FFF7ADFA00216014FFF7A9FA70E063
:101E10003F48844209D10121C804FFF7A1FA0021FB
:101E20004FF40020FFF79CFA63E03A48844209D15E
:101E300001210805FFF794FA00214FF48010FFF705
:101E40008FFA56E03448844209D101214805FFF752
:101E500087FA00214FF40010FFF782FA49E02F487B
:101E6000844208D101214020FFF75AFA0021402086
:101E7000FFF756FA3DE02A48844208D1012180202C
:101E8000FFF74EFA00218020FFF74AFA31E025489B
:101E9000844208D101218015FFF742FA0021A015E4
:101EA000FFF73EFA25E02048844209D101210804C9
:101EB000FFF756FA00214FF48030FFF751FA18E08F
:101EC0001A48844209D101214804FFF749FA002148
:101ED0004FF40030FFF744FA0BE01548844208D174
:101EE00001218804FFF73CFA00214FF48020FFF71E
:101EF00037FA10BD002C01400004004000080040EB
:101F0000000C00400010004000140040003401406C
:101F1000004C0140005001400054014000180040B6
:101F2000001C0040002000400040014000440140EF
:101F30000048014030B50246002000230024158AE5
:101F400005EA0103958905EA010413B10CB10120EA
:101F500000E0002030BD1AB183890B43838102E089
:101F600083898B438381704770B50024002200234E
:101F7000058C4FF6FE7635400584028C8388048BF1
:101F80004FF68F752C40B51E2C400D882C43751EC6
:101F90002A400D892A434D882A43144DA8420BD06C
:101FA000134DA84208D0134DA84205D0124DA842A7
:101FB00002D0124DA84213D14FF6F7752A404D8931
:101FC0002A434FF6FB752A408D882A434FF6FF655A
:101FD0002B404FF6FF552B408D892B43CD892B434A
:101FE00083800483CD888586028470BD002C0140E7
:101FF00000340140004001400044014000480140DD
:102000000A460021018B4FF6F773194011430183F3
:102010007047000070B5002400220023058C4FF6A5
:10202000EF7635400584028C8388048B48F6FF7573
:102030002C404FF6FF452C400D884FF6FF7606EA00
:1020400005252C434FF6DF752A400D8906EA051554
:102050002A434D8806EA05152A43154DA84202D0A9
:10206000144DA8421DD14FF67F752A404D894FF679
:10207000FF7606EA05152A434FF6BF752A408D887C
:1020800006EA05152A434FF6FF352B404FF2FF7540
:102090002B408D8906EA85052B43CD8906EA850507
:1020A0002B4383800483CD880587028470BD0000A4
:1020B000002C0140003401400A460021018B4FF200
:1020C000FF7319404FF6FF7303EA0223194301839C
:1020D0007047000070B5002400220023058C4FF6E5
:1020E000FF6635400584028C8388848B4FF68F759C
:1020F0002C404FF6FC752C400D882C434FF6FF55B5
:102100002A400D894FF6FF7606EA05252A434D88B9
:1021100006EA05252A43154DA84202D0144DA842CF
:102120001DD14FF2FF752A404D894FF6FF7606EA22
:1021300005252A434FF6FF352A408D8806EA0525F6
:102140002A434EF6FF752B404DF6FF752B408D89C7
:1021500006EA05152B43CD8906EA05152B43838036
:102160008483CD888587028470BD0000002C0140E7
:10217000003401400A460021818B4FF6F773194065
:10218000114381837047000070B5002200230024B2
:10219000058C4EF6FF7635400584038C8488828B4F
:1021A00048F6FF752A404FF6FF452A400D884FF646
:1021B000FF7606EA05252A434DF6FF752B400D896B
:1021C00006EA05352B434D8806EA05352B430B4DB2
:1021D000A84202D00A4DA84208D14BF6FF752C4008
:1021E0008D894FF6FF7606EA85152C43848082831D
:1021F000CD88A0F84050038470BD0000002C014041
:10220000003401400A460021818B4FF2FF731940D0
:102210004FF6FF7303EA02231943818370478186D7
:1022200070470187704781877047A0F8401070475A
:10223000002202881D4B98420ED01D4B98420BD0B5
:10224000B0F1804F08D01B4B984205D01A4B9842F2
:1022500002D01A4B984204D14FF68F731A404B8824
:102260001A43174B984207D0164B984204D04FF6AA
:10227000FF431A40CB881A4302808B8883850B88E2
:1022800003850A4B98420BD0094B984208D00E4B5D
:10229000984205D00D4B984202D00D4B984201D187
:1022A0000B7A03860123838270470000002C0140D3
:1022B000003401400004004000080040000C0040D1
:1022C0000010004000140040004001400044014064
:1022D0000048014010B540F225510C4800F03EF98D
:1022E00070B10A4800F0F6F9C4B22146074800F080
:1022F000F6F900BF4021054800F023F90128F9D183
:102300004021024800F008F910BD000000380140EB
:1023100010B586B0044601210420FFF711F8012111
:102320008803FFF70DF801210846FFF709F84FF47D
:102330000070ADF8140003208DF8160018208DF8F9
:10234000170005A91E48FEF7AAF94FF48060ADF802
:10235000140004208DF8170005A91948FEF79FF90D
:1023600001940020ADF80800ADF80A00ADF80C00AB
:10237000ADF810000C20ADF80E0001A9114800F0D6
:102380003DF901210F4800F0D0F840210D4800F040
:10239000C3F8012240F225510A4800F009F925202E
:1023A0008DF8000003208DF801008DF80200012057
:1023B0008DF803006846FEF7FFFC06B010BD000074
:1023C000000801400038014008B540F2255123487B
:1023D00000F0C4F800283FD0204800F07BF9C0B2DC
:1023E00000900121684601F0F5FD1D48008800F4C9
:1023F000004088BB1A48008800F4804070B19DF806
:1024000000000A2803D000201549088024E0144861
:10241000008840F40040124908801DE09DF800004B
:102420000D2806D10E48008840F480400C490880F1
:1024300012E09DF800000A490988C1F30D01094A1C
:10244000505407480088401C054908800846008809
:10245000C72801DD0020088008BD000000480040BA
:1024600050000020BF06002010B586B004460121B0
:102470000820FEF765FF01218804FEF741FF4FF4B5
:102480008060ADF8140003208DF8160018208DF838
:10249000170005A91E48FEF702F94FF40060ADF8D9
:1024A000140004208DF8170005A91948FEF7F7F865
:1024B00001940020ADF80800ADF80A00ADF80C005A
:1024C000ADF810000C20ADF80E0001A9114800F085
:1024D00095F801210F4800F028F840210D4800F040
:1024E0001BF8012240F225510A4800F061F827202C
:1024F0008DF8000002208DF801008DF80200012007
:102500008DF803006846FEF757FC06B010BD0000CA
:10251000000C01400048004001F40072B2F5007F59
:1025200000D100BFCA430280704721B1828942F4C2
:102530000052828104E082894DF6FF731A40828145
:10254000704702460020B1F5007F00D100BF13881C
:102550000B400BB1012000E00020704770B502462F
:10256000002400230025002040F66A16B14200D165
:1025700000BFC1F3421501F01F03012606FA03F361
:10258000012D02D19689334006E0022D02D1168A30
:10259000334001E0968A33400C12012606FA04F417
:1025A0001688344013B10CB1012000E0002070BD4A
:1025B000F0B50346002400260025002040F66A17E7
:1025C000B94200D100BF1846C1F3421401F01F0602
:1025D000012707FA06F5012C01D10C3004E0022C8A
:1025E00001D1103000E014301AB107682F430760A2
:1025F00002E00768AF430760F0BD00002DE9F04737
:1026000086B005460E460024A24600BFA14600271C
:10261000B08900B100BF2F462C8A4CF6FF700440F1
:10262000F08804432C82AC894EF6F3100440B08845
:1026300031890843718908430443AC81AC8A4FF661
:10264000FF400440B0890443AC8201A8FEF798FE25
:102650001F48874202D1DDF810A001E0DDF80CA090
:10266000A88900F4004040B10AEBCA0000EB0A1050
:1026700031684900B0FBF1F807E00AEBCA0000EB53
:102680000A1031688900B0FBF1F86420B8FBF0F063
:1026900004012009642101FB1089A88900F400408D
:1026A00040B1322000EBC900B0FBF1F000F00700B0
:1026B000044308E0322000EB09106421B0FBF1F084
:1026C00000F00F0004432C8106B0BDE8F087000045
:1026D0000038014001468888C0F308007047C1F304
:1026E00008028280704700BFFEE700002DE9F0413C
:1026F00006460D4600201F4908601F49C1F88001A9
:102700007E2000EA4607082412E0C7F3C0101949EA
:10271000091D086001201849C1F884017806070ED8
:102720000020144908600A2000F0A0FA601EC4B21C
:10273000002CEADC082412E0C5F3C0100D49091D85
:10274000086001200C49C1F884016806050E0020CC
:10275000084908600A2000F089FA601EC4B2002C03
:10276000EADC01200349091F08600349C1F884011C
:10277000BDE8F08184812342008023420FB4054BE1
:1027800010B503A9044A029800F018F810BC5DF8CF
:1027900014FB0000ED2C00086800002002E008C8CF
:1027A000121F08C1002AFAD170477047002001E0CB
:1027B00001C1121F002AFBD1704700002DE9FF4F15
:1027C0008DB00F460546002606E025280BD0DDE932
:1027D0000F1290476D1C761C28780028F5D111B097
:1027E0003046BDE8F08F0024A246A1460122EC4904
:1027F00000E0044315F8013F203B02FA03F00842D1
:10280000F7D128782A2810D06FF02F022878A0F16D
:102810003001092914D80AEB8A0102EB410144F086
:10282000020400EB010A6D1CF0E701CF5FEA000A29
:1028300003D544F40054CAF1000A44F002046D1CAC
:1028400028782E2817D115F8010F44F004042A28FF
:102850000ED06FF02F022878A0F1300109290AD894
:1028600009EB890102EB410100EB01096D1CF2E764
:1028700057F8049B6D1C28786C280FD006DC4C2878
:1028800017D068280DD06A2814D104E0742810D01D
:102890007A280FD10DE044F400140AE044F48014C7
:1028A00001E044F440146978814202D104F58014B7
:1028B0006D1C6D1C2A786E2A1FD00CDC632A31D067
:1028C00004DC002A8BD0582A11D1A3E0642A68D0F6
:1028D000692A0CD165E0732A2ED004DC6F2A73D0EC
:1028E000702A04D19BE0752A6FD0782A6ED01046EA
:1028F000DDE90F129047761C50E1C4F30250022824
:1029000006D0032809D0042801CF09D0066045E18C
:1029100001CFF117C0E9006140E101CF06803DE140
:1029200006703BE117F8040B8DF8000000208DF8CD
:102930000100EB46012003E057F804BB4FF0FF30E5
:1029400061074FF0000102D40DE008F10101884653
:1029500049450FDA8045F8DB1BF808100029F4D14F
:1029600008E008F1010188468142FADB1BF80810F3
:102970000029F6D1DDE90F23AAEB080081462146A4
:1029800000F036F9304400EB080604E0DDE90F12F0
:102990001BF8010B9047B8F10108F7D221464846D1
:1029A000F7E00A21C4F302534FF0000B0891022B09
:1029B00004D001CFC117032B09D00AE0FF1D27F077
:1029C0000707F7E8020108E032E01FE020E000B26C
:1029D000C117042B01D140B2C117031E71F10003CE
:1029E00007DA4FF0000CD0EB0C006CEB01012D234B
:1029F00002E0230504D52B238DF82430012303E0C6
:102A0000E30701D02023F7E7984658E00A2110E0B9
:102A100010210EE010204FF0000B08900CE0102168
:102A20004FF0000B44F004044FF00809089103E054
:102A300008214FF0000B0891C4F30253022B04D07D
:102A400001CF0021032B06D006E0FF1D27F007076A
:102A5000F7E8020103E080B2042B00D1C0B24FF0CE
:102A6000000823072BD5702A07D0DDF820C08CF092
:102A7000100C5CEA0B0C05D00EE040238DF82430DE
:102A8000012308E050EA010306D030238DF82430FA
:102A90008DF8252002239846DDF820C08CF0080C24
:102AA0005CEA0B0C0BD150EA010301D1630706D598
:102AB00030238DF824304FF00108A9F10109582A7C
:102AC00004D038A20B9208AA0A920BE03AA2F9E7C6
:102AD0005B46089AFDF76CFB0B9B9B5C0A9A521EA7
:102AE0000A92137050EA0102F2D10A98ADEB00008D
:102AF00000F1200B600702D524F4803401E04FF090
:102B00000109D94502DDA9EB0B0000E0002000EB34
:102B10000B0141440890AAEB010AE00306D4DDE969
:102B20000F232146504600F063F806444FF0000999
:102B300008E009A911F80900DDE90F12904709F131
:102B40000109761CC145F4DBE0030CD5DDE90F2358
:102B50002146504600F04CF8064404E0DDE90F122F
:102B600030209047761C0899481E08900029F5DC13
:102B700008E00A980A990078491C0A91DDE90F12C9
:102B80009047761CBBF10001ABF1010BF1DC214653
:102B90005046DDE90F2300F019F806446D1C1BE6D2
:102BA0000928010030313233343536373839616223
:102BB00063646566000000003031323334353637E7
:102BC0003839414243444546000000002DE9F041B8
:102BD000044600251E461746880404D405E03946FD
:102BE0002020B0476D1C641EF9D52846BDE8F08151
:102BF0002DE9F041044600251E469046C80301D544
:102C0000302700E02027880404D505E041463846F7
:102C1000B0476D1C641EF9D52846BDE8F081000060
:102C20000146114A12884A434FF0E0235A610022BC
:102C30009A611A46126942F001021A6100BF4FF010
:102C4000E022106900F001021AB100F48032002A7B
:102C5000F5D04FF0E022126922F001024FF0E0239C
:102C60001A6100229A6170474E0000200146114A05
:102C700012784A434FF0E0235A6100229A611A46C3
:102C8000126942F001021A6100BF4FF0E0221069A0
:102C900000F001021AB100F48032002AF5D04FF0A2
:102CA000E022126922F001024FF0E0231A610022B3
:102CB0009A6170474C00002001B581B0002000905F
:102CC000694601AA5078087010784870BDF8000075
:102CD0000CBD0146080601F47F4240EA022001F4DF
:102CE0007F0240EA122040EA1160704770B5044646
:102CF0000D46E1B20548FFF7F2FC00BF8021034812
:102D0000FFF71FFC0028F9D0204670BD00380140B5
:102D1000024612B102F0070028B9082901D80020A4
:102D200070470120FCE702F00700C0F1080088426C
:102D300001D30020F4E70120F2E730B502460B464C
:102D40000021002400250AB9481E30BD002108E0FA
:102D5000545C581A401E155C5554581A401E1454A1
:102D6000491CB1EB530FF3D30020EEE72DE9F041FE
:102D700004460D460026002704B135B91CA0FFF714
:102D8000FDFC4FF0FF30BDE8F08100F0AFF90746E1
:102D900028682168884203D01FA0FFF7EFFC0126B6
:102DA00068686168884203D020A0FFF7E7FC01262D
:102DB000287B217B884203D021A0FFF7DFFC01267E
:102DC000A868A16888420AD023480068381A41F2EE
:102DD0007071884203D321A0FFF7D0FC0126012E99
:102DE00003D100F083F91C4908603046CBE70000AE
:102DF00067697A436865636B5265706F72742045CA
:102E000072726F72202C20496C6C6567616C205067
:102E10006172616D0A00000076616C756553544102
:102E20005254204368616E6765640A0076616C7570
:102E300065454E44204368616E6765640A00000082
:102E400076616C75654F62737461636C652043686D
:102E5000616E6765640A00003C00002076616C7555
:102E60006543757272656E74506F696E7420436845
:102E7000616E6765640A0000F8B505460C461646A3
:102E80000DB104B12EB918A0FFF778FC4FF0FF3058
:102E9000F8BD287800F0010078B111212278601C7B
:102EA00081542078401C207002206B1C05220021D8
:102EB0000090084601F074F930602878C0F34000B3
:102EC00078B112212278601C81542078401C207037
:102ED00002206B1C052211460090002001F060F9D1
:102EE00070600020D4E7000067697A446174615023
:102EF0006F696E74324576656E74204572726F72BA
:102F0000202C20496C6C6567616C20506172616D8A
:102F10000A00000038B504460D4604B12DB921A0C1
:102F2000FFF72CFC4FF0FF3038BD00202880E87000
:102F30002068142805D327A0FFF720FC4FF0FF30AE
:102F4000F2E720682B46052200210090084601F098
:102F5000E7F86068142805D32AA0FFF70FFC4FF0AC
:102F6000FF30E1E760682B46052211460090002003
:102F700001F0D6F8207B2B4601220021009003208F
:102F800001F0CEF802212846FFF7D7FE0121E81C08
:102F9000FFF7D3FEA2680121084601F06BF9A87083
:102FA0000020C1E767697A44617461506F696E748B
:102FB00073325265706F727444617461204572722D
:102FC0006F72202C20496C6C6567616C20506172B7
:102FD000616D0A005B4552524F525D2076616C75FF
:102FE000655354415254204572726F72202C20490F
:102FF0006C6C6567616C204F766572737465700ADE
:10300000000000005B4552524F525D2076616C75A6
:1030100065454E44204572726F72202C20496C6CBD
:103020006567616C204F766572737465700A000085
:1030300070B5054600F05AF804461D492846FFF7CA
:1030400095FE012813D11BA0FFF798FB18491139F1
:103050002846FFF75FFF28B90422154911391046A9
:1030600000F0F2FF0D2229461148FDF77DF81748C0
:10307000B4FBF0F100FB1140C8B915480068A0424C
:1030800015D014A0FFF77AFB094911392846FFF73C
:1030900041FF28B9042206491139104600F0D4FF37
:1030A0000D2229460248FDF75FF80948046070BD0B
:1030B000220600206368616E6765642C207265706B
:1030C0006F727420646174610A000000C0270900F7
:1030D00040000020496E666F3A203630305320722F
:1030E00065706F727420646174610A000148006841
:1030F000704700003400002010B5164890F84000DA
:10310000012825D1134890F83F0002281BDAFFF769
:10311000EDFF1049C96D401AC82819D9FFF7E6FF1D
:1031200004460C4890F83F30C26D21460AA0FFF7D4
:1031300025FB00F0A9FE074890F83F00401C054918
:1031400081F83F0004E0212102483F30FDF725F8D7
:1031500010BD0000610500205761726E696E673A0C
:1031600067697A50726F746F636F6C526573656EC6
:1031700064446174612025642025642025640A006C
:103180003EB50446002524B913A0FFF7F7FA681EE0
:103190003EBD20680090606801909DF80400401CCE
:1031A000C0B28DF804000520FFF786FDADF80200DF
:1031B0000921684600F0A6FE8DF80800092168463E
:1031C00002F0F0F80546002D03DA29460DA0FFF7BE
:1031D000D5FA2846DCE700004552523A2067697A62
:1031E00050726F746F636F6C436F6D6D6F6E416380
:1031F0006B206461746120697320656D707479203F
:103200000A0000004552523A2075617274207772AC
:10321000697465206572726F72202564200A00004F
:10322000FEB504460E46002524B914A0FFF7A6FA01
:10323000681EFEBD684600F0D7F912208DF8040024
:1032400060798DF805000620FFF736FDADF8020025
:103250008DF808600A21684600F054FE8DF80900D8
:103260000A21684602F09EF80546002D03DA294639
:103270000DA0FFF783FA2846DBE7000067697A5064
:10328000726F746F636F6C4572726F72436D6420FE
:103290004572726F72202C20496C6C6567616C20DE
:1032A000506172616D0A00004552523A2075617298
:1032B00074207772697465206572726F722025645C
:1032C000200A000030B59DB0044600252CB92BA083
:1032D000FFF754FA681E1DB030BD684600F084F94F
:1032E00002208DF8040060798DF805002FA103C934
:1032F000CDE9020130A103C9CDE9040131A103C91F
:10330000CDE9080132A103C9CDE90601202233A18C
:103310000AA8FCF729FF202239A10DF15200FCF781
:1033200023FF0020CDF84A00CDF84E009DF8510053
:103330008DF851009DF8510040F002018DF85110B8
:103340000020FFF7B9FCADF848006F20FFF7B4FC90
:10335000ADF802007321684600F0D4FD8DF87200CC
:103360007321684602F01EF80546002D03DA29464F
:103370002CA0FFF703FA2846ADE7000067697A50F2
:10338000726F746F636F6C476574446576696365CB
:10339000496E666F204572726F72202C20496C6CEA
:1033A0006567616C20506172616D0A0030303030A9
:1033B00030303034000000003030303030303032C7
:1033C0000000000030333033303030300000000077
:1033D000303330313031303000000000653234623B
:1033E0003633373934383536343161643831376300
:1033F00031623732343261326539356200000000A3
:103400006131656531353063333763393461633930
:1034100061613665626238303038663932666563BC
:10342000000000004552523A207561727420777294
:10343000697465206572726F72202564200A00002D
:103440002DE9FE4F80460E4617464FF0000B002038
:10345000029081468246002534460090B8F1000F64
:1034600001D006B137B950A0FFF788F94FF0FF300F
:10347000BDE8FE8F404601F068FC00F0FF0ABAF19B
:10348000000F02D14FF0FF30F2E74FF000095DE08E
:10349000012201A9404601F095FC8346BBF1000FD3
:1034A00052D04D480078FF281FD19DF80400FF2816
:1034B0001BD14A48007848B9FF2020706070022074
:1034C0004749088001204549087034E04448008895
:1034D000042830DD42480088A8422CD0FF2020700C
:1034E000607002203E49088025E03B480078FF28B4
:1034F00003D19DF8040055281DD0384800780128D4
:1035000019D19DF804003649098860543448008870
:10351000401C334908800846008804280BDD0094CD
:10352000009C6088FFF7C8FB001D85B22C4800880E
:10353000A84200D10CE09DF80400274908702948F2
:103540000078401C2749087009F10109D1459FDB2B
:1035500000BF23480088042823DD21480088A842B2
:103560001FD11F480188204600F0CCFC02901C4867
:103570000088401E215C029881420FD12A462146D4
:103580003046FCF7F1FD3D800020144908701449D5
:103590000880144908701049087069E76FF001004D
:1035A00066E7012064E7000067697A50726F746F04
:1035B000636F6C4765744F6E655061636B65742013
:1035C0004572726F72202C20496C6C6567616C20AB
:1035D000506172616D0A0000480000204400002024
:1035E000460000204900002010B504462CB907A071
:1035F000FFF7C4F84FF0FF3010BD0020206060607E
:10360000FF20207060700020F6E700004552523A1B
:103610002067697A50726F746F636F6C486561647C
:10362000496E6974206865616420697320656D70F6
:103630007479200A000000002DE9F04F8FB0064693
:103640008B461746994600200E90824680460025FC
:1036500001ACBBF1000F06D131A0FFF78FF8681E57
:103660000FB0BDE8F08FB9F1010F06D196F80880D0
:1036700008F10600384485B201E0781D85B22B467A
:10368000424639462CA0FFF779F8FF2004F8010BD9
:1036900004F8010B281204F8010B04F8015B3079DF
:1036A000401C04F8010B707904F8010B002004F8A9
:1036B000010B04F8019B4FF0080AB9F1010F0DD17D
:1036C00004F8018B0AF1010A01A901EB0A00424644
:1036D00006F10901FCF748FDC244444437B101A991
:1036E00001EB0A003A465946FCF73EFD291D01A8A8
:1036F00000F008FC0146E81C01AA1154291D01A88C
:1037000001F050FE0E900E98002806DA14A00E99D3
:10371000FFF734F86FF00100A2E70020A0E70000F7
:103720005B4552525D202064617461204973204ED4
:10373000756C6C200A0000006C656E203D202564CD
:10374000202C20734469644C656E203D2025642044
:103750002C646174615F6C656E203D2025640A00F5
:1037600075617274207772697465206572726F7208
:10377000202564200A0000002DE9F04780460C4611
:1037800017461D46089E94F800900CB105B136B955
:103790002FA0FEF7F3FF4FF0FF30BDE8F087B8F140
:1037A000000F53D114213648FCF7F7FCB9F1010F93
:1037B00006D0B9F1020F11D0B9F1050F44D123E0C1
:1037C0002F4A54322E49601CFFF756FB01202C492A
:1037D0006039087000250020306036E028495031FB
:1037E00001F11100FFF796FB50B925486038D0F879
:1037F000B000C5F80100032028700520306002E009
:103800004FF0FF30C9E720E07A1E611C1C484638A3
:10381000FCF7AAFC781E1A496039C1F83300102160
:103820001748603890F8602061308154613890F812
:103830006000401C1249603981F860000320087064
:1038400000250020306000E000BF00BF0020A4E79A
:1038500067697A50726F746F636F6C4973737565C3
:103860006450726F63657373204572726F72202C9F
:1038700020496C6C6567616C20506172616D0A0053
:10388000C105002070B5044625462CB90FA0FEF7EF
:1038900075FF4FF0FF3070BD412205F108010F4860
:1038A000FCF762FC0F210D48DB3890F89C209D301E
:1038B00081549D3890F89C00401C0849DB3981F800
:1038C0009C00052008700020E5E700004E545020C1
:1038D000697320656D707479200A00003C06002031
:1038E00010B504462CB9CAA0FEF748FF4FF0FF30D0
:1038F00010BD2089FFF7E0F92081D1480078C0F39E
:103900008000217AC1F38001884256D0207AC0F32A
:103910008000002829D0207A00F0010078B1002131
:10392000C84890F8742075308154753890F8740048
:10393000401CC44981F87400C3A0FEF71FFF207A21
:10394000C0F34000002838D00121BE4890F8742010
:1039500075308154753890F87400401CB94981F86D
:103960007400C1A0FEF70AFF27E0207A00F00100F2
:1039700078B10021B34890F87420753081547538BF
:1039800090F87400401CAF4981F87400AEA0FEF7B7
:10399000F5FE207AC0F3400078B10221A94890F8E2
:1039A000742075308154753890F87400401CA54916
:1039B00081F87400B3A0FEF7E1FEA1480078C0F3DF
:1039C000C000217AC1F3C00188422CD0207AC108FE
:1039D0009B48007861F3C30099490870207AC0F3CE
:1039E000C00080B10321974890F87420753081544D
:1039F000753890F87400401C924981F87400A8A0B2
:103A0000FEF7BCFE0FE004218E4890F8742075305C
:103A10008154753890F87400401C8A4981F874000C
:103A2000A7A0FEF7ABFE86480078C0F30010217A0D
:103A3000C1F3001188422CD0207A01098048007817
:103A400061F304107E490870207AC0F3001080B141
:103A500005217C4890F8742075308154753890F8B1
:103A60007400401C774981F874009DA0FEF786FE23
:103A70000FE00621734890F8742075308154753832
:103A800090F87400401C6F4981F874009CA0FEF708
:103A900075FE6B480078C0F34010217AC1F34011E5
:103AA00088422CD0207A41096548007861F345109E
:103AB00063490870207AC0F3401080B10721614843
:103AC00090F8742075308154753890F87400401C5B
:103AD0005C4981F8740093A0FEF750FE0FE00821C6
:103AE000584890F8742075308154753890F87400F7
:103AF000401C544981F8740091A0FEF73FFE5048E5
:103B00004078C0F3C001607AC0F3C00081422CD07D
:103B1000607AC1084A48407861F3C3004849487058
:103B2000607AC0F3C00080B10B21464890F8742041
:103B300075308154753890F87400401C414981F803
:103B4000740087A0FEF71AFE0FE00C213D4890F8A4
:103B5000742075308154753890F87400401C3949D0
:103B600081F8740085A0FEF709FE35484078C0F35F
:103B70000011607AC0F3001081422CD0607A0109F4
:103B80002F48407861F304102D494870607AC0F3E3
:103B9000001080B109212B4890F8742075308154B1
:103BA000753890F87400401C264981F874007BA099
:103BB000FEF7E4FD0FE00A21224890F874207530EA
:103BC0008154753890F87400401C1E4981F87400C7
:103BD00079A0FEF7D3FD0D211A4890F874207530B6
:103BE0008154753890F87400401C164981F87400AF
:103BF000607A00F0070081F8CE00084690F8CE10F9
:103C000074A0FEF7BBFD02200E49087000206FE68D
:103C100067697A50726F746F636F6C4D6F64756C07
:103C200065537461747573204572726F72202C2015
:103C3000496C6C6567616C20506172616D0A0000AF
:103C40004A000020610500204F6E426F6172646976
:103C50006E673A20536F66744150206F722057652B
:103C600062206D6F64650A004F6E426F6172646915
:103C70006E673A204169724C696E6B206D6F6465A6
:103C80000A0000004F6E426F617264696E673A20ED
:103C900053746174696F6E206D6F64650A00000073
:103CA00057694669207374617475733A20696E2090
:103CB00062696E64696E67206D6F64650A0000005A
:103CC00057694669207374617475733A206F75740F
:103CD0002062696E64696E67206D6F64650A00001A
:103CE00057694669207374617475733A20636F6E07
:103CF0006E656374656420726F757465720A000086
:103D000057694669207374617475733A20646973E6
:103D1000636F6E6E656374656420726F757465722F
:103D20000A00000057694669207374617475733A1C
:103D300020636F6E6E6563746564206D326D0A007A
:103D400057694669207374617475733A20646973A6
:103D5000636F6E6E6563746564206D326D0A00007A
:103D600057694669207374617475733A2061707085
:103D700020636F6E6E6563740A00000057694669C0
:103D8000207374617475733A206E6F2061707020B7
:103D9000636F6E6E6563740A0000000057694669C0
:103DA000207374617475733A20696E20746573743E
:103DB000206D6F64650A000057694669207374615D
:103DC0007475733A206F75742074657374206D6F09
:103DD00064650A0052535349206973202564200A00
:103DE0000000000070B5044625462CB919A0FEF766
:103DF000C5FC4FF0FF3070BD1B48A9680160E96841
:103E00004160298A0181A97C8172A0F1CF01B1F8BA
:103E1000CF00FEF751FF1449CF39A1F8CF00D1F8F8
:103E2000D700FEF756FF1049CF39C1F8D7000E2151
:103E30000D48CF3890F8882089308154893890F81F
:103E40008800401C0849CF3981F888000420087098
:103E50000020D0E74552523A204E5450206973203A
:103E6000656D707479200A003006002010B5FFF7E8
:103E70003DF9044600BFFFF739F9001BB0F5167F86
:103E8000F9D900F061FF10BD10B500240E4890F87C
:103E9000400000B910BD0DA0FEF770FC0A48B0F854
:103EA0005A10413001F07EFA04460748B0F85A0033
:103EB000A04202D00DA0FEF761FCFFF717F90249FE
:103EC000C86500BFE6E70000610500205761726E1B
:103ED000696E673A2074696D656F75742C20726520
:103EE00073656E642064617461200A004552523A21
:103EF00020726573656E64206461746120657272FE
:103F00006F720A0010B502460024002302B109B9FD
:103F1000002010BD022303E0D05C2044C4B25B1C2F
:103F2000481E9842F8D82046F3E7000070B50446D2
:103F30000D462CB90EA0FEF721FC4FF0FF3070BDEE
:103F400021211148FCF729F92A4621460E48801CF8
:103F5000FCF70AF90C483F38A0F85A50012180F8C4
:103F60004010FFF7C3F808493F39C8650020E6E76D
:103F70004552523A206461746120697320656D7006
:103F80007479200A00000000A005002070B50446E6
:103F9000094D2CB909A0FEF7F1FB4FF0FF3070BDC1
:103FA0002879401C2179884204D121210248801EB1
:103FB000FCF7F3F80020F2E7A20500204552523A40
:103FC000206461746120697320656D707479200AC2
:103FD0000000000070B504460D46002624B90AA072
:103FE000FEF7CCFB701E70BD2A4621460E4800F03D
:103FF0003AFF0646AE4205D00CA0FEF7BFFB4FF0DD
:10400000FF30F0E73046EEE74552523A2067697AD2
:10401000507574446174612062756620697320650F
:104020006D707479200A00007D0600204552523AD6
:10403000204661696C656420746F207262577269F2
:104040007465200A000000002DE9FF4105460E4678
:104050001746002436B920A0FEF790FB601E04B07E
:10406000BDE8F0816846FFF7BFFA05208DF804002F
:10407000234890F83710D0F83700401C204AC2F887
:104080003700C8B28DF805008DF808500A20FEF7F9
:1040900013FEADF802003A4631460DF10900FCF777
:1040A00063F80E216846FFF72DFF8DF80D000E21F5
:1040B000684601F077F90446002C06DA214611A083
:1040C000FEF75CFB6FF00100C9E70E216846FFF7C1
:1040D0002DFF2046C3E7000067697A5265706F7252
:1040E0007444617461204572726F72202C20496C97
:1040F0006C6567616C20506172616D0A00000000A0
:10410000610500204552523A207561727420777221
:10411000697465206572726F72202564200A000040
:104120002DE9F04704460D461746089E4FF000095A
:10413000CA46C8461BB94FF0FF30BDE8F087394684
:104140002846FEF7E5FD8046B8F1000F07D1185D5F
:1041500005F0070106FA01F1084318551EE0B8F111
:10416000010F1BD1F0B205F00701C1F1080140FABF
:1041700001F905F00700C0F10801FF20084100EA3D
:10418000060A601C185C40EA0900611C5854185D5E
:1041900005F007010AFA01F1084318550020CCE7A1
:1041A0002DE9F04F8FB005460C4616469946189FEC
:1041B0004FF0000AD34600200E908046B9F1000F60
:1041C00000D027B94FF0FF300FB0BDE8F08F3A466E
:1041D000494601A8FBF7C8FF012F09D9394601A8B4
:1041E000FEF7ABFDB0F1FF3F02D14FF0FF30EBE740
:1041F00031462046FEF78CFD8246BAF1000F0CD105
:1042000001A8405D04F007010841C6F10802FF2142
:104210001141084040EA080821E0BAF1010F1ED11F
:1042200001A9681C085C04F00701C1F10801711ABA
:10423000C1F10802FF21114100EA010B01A8405D14
:1042400004F0070108410E9004F00700C0F10801D6
:104250000BFA01F040EA08080E9848EA00084046C8
:10426000B2E7000002480068401C0149086070473E
:104270003400002010B503460020541AB4FBF3F0BC
:1042800010BD00002DE9FF5F07460D4693464FF035
:1042900000082E46A9462C46AA4607B125B94FF07C
:1042A000FF3004B0BDE8F09F4FF00008ABE0781C91
:1042B00010F8080013286ED2DFE800F06C6E6F9FD4
:1042C0009F707172769F9F9F9F7A8493800A3D00B2
:1042D000306850490860084601684FA0FEF74EFA62
:1042E0004C480068142823D2DFE800F00A0B0C0DBC
:1042F0000E0F1011161718191A1B1C1D1E1F202136
:1043000017E016E015E014E013E012E011E01021D0
:104310004748FCF797FA0CE00BE00AE009E008E0F8
:1043200007E006E005E004E003E002E001E000E071
:1043300000BF00BF62E070683649486008464168C7
:104340003CA0FEF71BFA3348406814281FD2DFE870
:1043500000F00A0B0C0D0E0F101112131415161786
:1043600018191A1B1C1D13E012E011E010E00FE0F9
:104370000EE00DE00CE00BE00AE009E008E007E0E9
:1043800006E005E004E003E002E001E000E000BF39
:1043900000BF33E032E030E030E02FE02EE02DE0EF
:1043A00001202949087029E000202749087025E0EC
:1043B00099F8001025A0FEF7E1F91FE026A0FEF70E
:1043C000DDF91BE0A17962792379A068CDE900329B
:1043D000CDE90210E378A278218824A0FEF7CEF977
:1043E0000CE02DA0FEF7CAF930A0FEF7C7F99AF845
:1043F000001032A0FEF7C2F900E000BF00BF08F1D4
:10440000010000F0FF08387840453FF750AF00202A
:1044100047E70000540500204576743A204556458C
:104420004E545F53544152542025640A000000004A
:10443000001001404576743A204556454E545F457C
:104440004E442025640A0000300000205253534996
:104450002025640A000000005452414E535041523E
:10446000454E545F44415441200A00005749464993
:104470005F4E5450203A205B25642D25642D256421
:1044800020253032643A253032643A253032645D7A
:104490005B25645D200A00004D4F44554C45204982
:1044A0004E464F202E2E2E0A00000000574946206F
:1044B0004D4F44554C45202E2E2E0A006D6F6475CD
:1044C0006C6554797065203A205B25645D200A0094
:1044D0003EB500246846FFF787F817208DF80400E2
:1044E000134890F83710D0F83700401C104AC2F833
:1044F0003700C8B28DF805000520FEF7DDFBADF8EA
:10450000020009216846FFF7FDFC8DF8080009212B
:10451000684600F047FF0446002C03DA214605A058
:10452000FEF72CF909216846FFF700FD3EBD0000AB
:10453000610500204552525B4E54505D3A20756132
:104540007274207772697465206572726F722025AB
:1045500064200A002DE9F04190B0054600260020B5
:104560000290019000248046002735B981A0FEF713
:1045700005F9601E10B0BDE8F081FEF7BDFD02AA8E
:1045800086498748FEF75CFF0646002E71D185A05C
:10459000FEF7F4F8814C20790F284FD00ADC0E2862
:1045A00073D2DFE800F07216721A727243387272B8
:1045B0004472453C182852D006DC112847D01428F4
:1045C00046D0162861D134E0222854D02A285CD164
:1045D00030E02046FEF776FE5FE0E279A17976A032
:1045E000FEF7CCF801A8009007F10900BDF80830EB
:1045F0001A1A6A480830C11903AB4046FFF7BCF8E5
:1046000040B9E37903A92046019AFFF715F86EA097
:10461000FEF7B4F841E02046FEF7B2FD3DE020464B
:10462000FEF7AEFD2046FFF75BF936E000BF00BFA6
:1046300000BF00BF2046FFF7A9FC2EE02046FEF792
:104640009FFD64A0FEF79AF8FFF710FC25E024E038
:104650002046FFF79BFC64A0FEF790F81DE0204683
:10466000FFF794FC2046FFF7BDFB67A0FEF786F836
:1046700013E013E009E02046FFF788FC2046FFF72F
:1046800001F967A0FEF77AF807E002212046FEF75D
:10469000C7FD6AA0FEF772F800BF0DE016F1020F29
:1046A0000AD13E4C01212046FEF7BAFD69A0FEF773
:1046B00065F86FF001005DE73848401E0078062875
:1046C00050D2DFE800F04F0313232F3F002033497F
:1046D000491E08700D22B431A1F15400FFF7D2FD3C
:1046E00014212E485F30FBF758FD3CE000202B4999
:1046F000491E08700122CE31A1F15A00FFF7C2FD18
:10470000142126487330FBF748FD2CE00020234994
:10471000491E08700846D0F833201A316030FFF780
:10472000B1FD20E000201D49491E08700C22CF3148
:10473000A1F14700FFF7A6FD142118488730FBF7C9
:104740002CFD10E000201549491E08704122DB3184
:10475000A1F13F00FFF796FD412110489B30FBF788
:104760001CFD00E000BF00BF2846FEF761FC0020F2
:1047700000E7000047697A7769747348616E646C7A
:1047800065204572726F72202C20496C6C656761E0
:104790006C20506172616D0A00000000620500200B
:1047A0007D060020476574204F6E65205061636B65
:1047B0006574210A00000000666C6167202578207E
:1047C0002578200A0000000041636B446174612079
:1047D0003A200A007265706F72743A4D4355207228
:1047E00065626F6F74210A0041636B2050524F4421
:1047F000554354494F4E5F4D4F4445207375636395
:10480000657373200A00000041636B204745545FC5
:104810005554542073756363657373200A00000058
:1048200041636B204745545F4D6F64756C65207321
:10483000756363657373200A000000004552523AA5
:1048400020636D6420636F6465206572726F7221EE
:104850000A0000004552523A20636865636B20737A
:10486000756D206572726F72210A000010B53220DA
:104870000A4908600A48C860084600F098FA18B962
:1048800008A0FDF77BFF02E00BA0FDF777FF4FF4D8
:104890008E710E48FBF781FC10BD00007D060020E4
:1048A0008D060020726243726561746520537563E2
:1048B00063657373200A00007262437265617465F8
:1048C000204661696C64200A000000006105002038
:1048D00030B587B005460024062D7CD2DFE805F010
:1048E00003305F90BDEA01A8FEF77EFE0B208DF835
:1048F00008008B4890F83710D0F83700401C884AE1
:10490000C2F83700C8B28DF809000520FEF7D4F9C7
:10491000ADF80600092101A8FFF7F4FA8DF80C00A4
:10492000092101A800F03EFD0446002C03DA2146CF
:104930007CA0FDF723FF092101A8FFF7F7FAEAE0C1
:1049400004A8FEF751FE09208DF81400744890F871
:104950003710D0F83700401C714AC2F83700C8B28F
:104960008DF815008DF818500620FEF7A5F9ADF862
:1049700012000A2104A8FFF7C5FA8DF819000A21D0
:1049800004A800F00FFD0446002C03DA214665A0C0
:10499000FDF7F4FE0A2104A8FFF7C8FABBE004A85B
:1049A000FEF722FE09208DF814005D4890F83710BC
:1049B000D0F83700401C5A4AC2F83700C8B28DF808
:1049C00015008DF818500620FEF776F9ADF81200A4
:1049D0000A2104A800E09AE0FFF794FA8DF8190084
:1049E0000A2104A800F0DEFC0446002C03DA21466C
:1049F0004CA0FDF7C3FE0A2104A8FFF797FA8AE04E
:104A000001A8FEF7F1FD13208DF80800444890F846
:104A10003710D0F83700401C414AC2F83700C8B2FE
:104A20008DF809000520FEF747F9ADF806000921C9
:104A300001A8FFF767FA8DF80C00092101A800F022
:104A4000B1FC0446002C03DA214636A0FDF796FEA1
:104A5000092101A8FFF76AFA5DE001A8FEF7C4FD8D
:104A600015208DF808002E4890F83710D0F8370040
:104A7000401C2B4AC2F83700C8B28DF80900052047
:104A8000FEF71AF9ADF80600092101A8FFF73AFA76
:104A90008DF80C00092101A800F084FC0446002CCC
:104AA00003DA21461FA0FDF769FE092101A8FFF7DF
:104AB0003DFA30E001A8FEF797FD29208DF80800A7
:104AC000174890F83710D0F83700401C144AC2F845
:104AD0003700C8B28DF809000520FEF7EDF8ADF8F3
:104AE0000600092101A8FFF70DFA8DF80C00092135
:104AF00001A800F057FC0446002C03DA214609A067
:104B0000FDF73CFE092101A8FFF710FA03E00CA015
:104B1000FDF734FE00BF00BF204607B030BD0000E7
:104B2000610500204552523A2075617274207772F7
:104B3000697465206572726F72202564200A000016
:104B40004552523A204366674D6F64652065727224
:104B50006F72210A00000000E6B04820FCF75EFDFD
:104B60004FF4A060FCF760F9FCF708F9FBF784FE4E
:104B7000FCF718FEFCF790FBFCF7D0FAFCF75EF9A7
:104B80000A20FEF74DF8FCF75FF90A20FEF748F817
:104B90004FF4E130FDF7BCFB4FF41650FDF764FC19
:104BA00041F61F410920FCF775FF00F047FCFFF7B5
:104BB0005DFE47214FF4FA70FCF79EFF47214FF44A
:104BC000FA70FDF745F8C8214648FDF728FB00219B
:104BD0004448FDF726FB00214248FDF724FB40F244
:104BE000F3114048FDF721FB40F2F3113E48FDF779
:104BF00016FB00213C48FDF714FB00213A48FDF765
:104C000012FBC8213848FDF710FB02A8FBF720FE75
:104C100000218DF81E108DF833108DF8B110C021D1
:104C20008DF8351002A801768DF85F108DF84A10C6
:104C30008DF874108DF8B21040218DF885102B4836
:104C40000A2301221946009002A8FBF75BFB48E00B
:104C50002748007830B101283ED0032828D0042806
:104C60003ED12FE04FF4FC602249088022A0182199
:104C7000CDE900102548438802880A210846FBF741
:104C8000D9FF23A01021CDE90010204843880288D5
:104C900028210A20FBF7CEFF24A01021CDE9001027
:104CA0001A48438802883C210A20FBF7C3FF17E01B
:104CB00000200F49087000F023F94FF6FF70FBF752
:104CC0004DFE0DE000200A49087000F0C7FB4FF6CA
:104CD000FF70FBF743FE03E000200549087000BFAA
:104CE00000BFB5E700080040000400406C00002051
:104CF0000C000020000000202323232323237374AF
:104D00006172742323232323230000000400002066
:104D10004C3A207266696420202020202020202028
:104D200020523A207769666900000000553A2074E5
:104D30006F74616C202020202020202020443A2005
:104D40002020202000000000704700B5024612B964
:104D50004FF0FF3000BD50689168884201D10020BB
:104D6000F8E750689168884203D290685168401A09
:104D7000F0E7104600F014F851689368C91A401A19
:104D8000E8E730B5044614B94FF0FF3030BD204697
:104D900000F006F805462046FFF7D7FF281AF5E78A
:104DA000014611B94FF0FF3070470868FCE7014633
:104DB00011B94FF0FF307047C8684860C868886014
:104DC0000020F8E72DE9F04104460F46164600257D
:104DD00014B9681EBDE8F08117B94FF0FF30F9E74C
:104DE0006068A168884214D22046FFF7AEFFB04247
:104DF00001D9304602E02046FFF7A7FF054661686B
:104E00002A463846FBF7B0F96068284460602846B7
:104E1000E0E72046FFF7C4FF6168E268891A401A9C
:104E2000B0420AD9354661682A463846FBF79CF9F4
:104E30006068284460602846CCE72046FFF7B0FF52
:104E40006168E268891A451A61682A463846FBF7A4
:104E50008BF9E0686060721B79192046FFF7B2FF9A
:104E600005442846B6E72DE9F04104460F461546AD
:104E7000002604B11FB94FF0FF30BDE8F081204695
:104E8000FFF77FFFA84202D86FF00100F5E76068E6
:104E9000A16888422AD82046FFF782FFA168E2680D
:104EA000891A461AB54213D8A0682A463946FBF734
:104EB0005BF9A0682844A0602046FFF771FFE16815
:104EC0000844A168884201D1E068A0602846D4E780
:104ED000A06832463946FBF747F9E068A060AA1B94
:104EE000B9192046FFF7BFFF3044C6E7A0682A463D
:104EF0003946FBF739F9A0682844A0602846BCE78A
:104F00001CB54FF6FF70FBF729FD53E02A480078E7
:104F100005284ED2DFE800F0033B452933004FF46B
:104F2000FC602649088026A01021CDE90010264803
:104F3000438802880A210846FBF77CFE23A0102143
:104F4000CDE900102048438802881E210A20FBF783
:104F500071FE24A01021CDE900101B48438802886F
:104F600032210A20FBF766FE23E000201249087078
:104F700000F044F84FF6FF70FBF7F0FC19E000205A
:104F80000D4908704FF6FF70FBF7E8FC1CBD0020D0
:104F90000949087000F026F94FF6FF70FBF7DEFCB8
:104FA00007E00020044908704FF6FF70FBF7D6FCBD
:104FB00000BF00BFAAE700000C0000200000002096
:104FC00073656C6563743A00040000204C3A2077E6
:104FD00072697465206361726420523A202065789A
:104FE00069740000553A20726561642063617264DF
:104FF0002020443A20636C65617200001CB54FF6B6
:10500000FF70FBF7ABFC4FF4FC605F4908805FA0CA
:105010001021CDE900106048438802880A21084623
:10502000FBF708FE5DA01021CDE900105A48438827
:1050300002881E210A20FBF7FDFD5DA01021CDE9AD
:10504000001055484388028832210A20FBF7F2FD00
:105050004FF478404C49088094E05A48007805287D
:1050600021D2DFE800F0030E17040A001BE0002045
:10507000554908705349087015E0002051490870DF
:105080001CBD51480078401C4F49087000204D4914
:10509000087008E04C480078401E4B49087000201A
:1050A0004849087000BF00BF80201021CDE90010E2
:1050B00045480278032396210A20FBF7EEFD434979
:1050C0005220FCF700F8424908700846007830B1D9
:1050D000FCF724F8FBF7B2FEFBF7B6FE52E03B48C4
:1050E000FBF7BFFE3A4908700846007800B149E076
:1050F0003648FCF74DF8364908700846007800B18C
:1051000040E0324B334A01216020FBF7E2FE304998
:1051100008700846007800B134E02B490120FCF704
:1051200070F82B4908700846007800B12AE02AA0E0
:105130001021CDE90010184843880288B4210A20C4
:10514000FBF778FD80201021CDE900101E48027881
:105150000323B4211E20FBF7A0FD4FF4FA70FDF7E6
:105160005FFD1EA01021CDE900100B484388028886
:10517000B4210A20FBF75EFD13480078401C124959
:10518000087000BF69E700000000002077726974B2
:10519000696E67206E6F770004000020553A206129
:1051A00064642020443A206D696E7573000000002D
:1051B000523A2065786974204C3A20636C656172BC
:1051C000000000000C000020800000209000002063
:1051D0002A000020240000206F6B000020202020E7
:1051E000202020001CB54FF6FF70FBF7B7FB4FF4F3
:1051F000FC605849088058A01021CDE9001059489A
:10520000438802880A210846FBF714FD56A01021A6
:10521000CDE900105348438802881E210A20FBF77D
:1052200009FD4FF478404B49088091E053480078DD
:1052300020B1032803D0042815D110E013E050A0BA
:105240001021CDE900104748438802884FF482714D
:105250003220FBF7EFFC00204849087003E00020F3
:10526000464908701CBD00BF46495220FBF72BFF82
:10527000454908700846007830B1FBF74FFFFBF74F
:10528000DDFDFBF7E1FD63E03E48FBF7EAFD3E494B
:1052900008700846007800B15AE03CA01021CDE922
:1052A0000010304843880288E6210A20FBF7C2FC40
:1052B00080201021CDE9001032480078344948435D
:1052C0003049497801EB4103C3EBC11100EBC10048
:1052D0002C49897842180923E6213220FBF7DDFCAE
:1052E0002848FBF755FF284908700846007800B1A8
:1052F0002EE0244B274A01216020FBF7EAFD2249DA
:1053000008700846007800B122E01E490120FBF732
:10531000B0FE1D4908700846007800B118E01EA0D4
:105320001021CDE900100F48438802884FF48271A4
:105330000A20FBF77FFC80201021CDE900101148E6
:10534000027803234FF482713220FBF7A6FC00BFE2
:105350006CE700000000002072656164696E6720E0
:105360006E6F7700040000204C3A20636C65617218
:1053700020523A2065786974000000000C0000207B
:1053800020200000900000202A00002049443A001C
:1053900040420F00240000206269616F2068616F45
:1053A0000000000070B505460E4600240DB9601ED1
:1053B00070BD00241BE0295D0F48FDF790F900BF88
:1053C00040210D48FDF7BDF80028F9D0022C0DD37F
:1053D000285DFF280AD155210748FDF780F900BF55
:1053E00040210548FDF7ADF80028F9D0641CB4420F
:1053F000E1D33046DCE700000048004010B50D481E
:10540000007880B10C480078401C0B4908700846B1
:1054100000780A2803D100200870FFF759F86420AB
:10542000FDF7FEFB05E00448007810B100200249BA
:10543000087010BD300000203800002010B50D218C
:105440000548FAF7AAFE00200349086048600120D9
:1054500088600020087310BD5405002010B53BE0A3
:10546000FFF7CCFF1D48FFF775F81D4800780128AD
:1054700009D120211B48FBF7E5F91BA0FDF77EF9B8
:105480000220FFF725FA16480078022805D11CA053
:10549000FDF774F90020FFF71BFA11480078032884
:1054A00000D110BD0E48007804280AD10B4880684E
:1054B000401C0A49886008468068152801D10120EF
:1054C0008860C820FDF7ACFB1148006808B90120CE
:1054D00000E000200E490860C2E7000054050020EB
:1054E0000C000020001001407769666920656E7429
:1054F0006572206169726C696E6B0D0A00000000B4
:1055000077696669207265617374210D0A00000075
:10551000880122420000000000000000000000009E
:10552000000000003F4000000000000000003000CC
:10553000400030004000000009000BC03D000BC0DF
:105540003D00090018C024407FE022403180000067
:10555000180024C01B000D803240018003801C40D5
:1055600027401C8007400040100060000000000041
:10557000000000000000000000001F8020404020CC
:105580000000402020401F800000000009000600AD
:105590001F80060009000000040004003F80040092
:1055A0000400000000100060000000000000000087
:1055B0000400040004000400040000000000004097
:1055C0000000000000000000002001C006003800BC
:1055D000400000001F802040204020401F8000002D
:1055E000000010403FC000400000000018C02140F3
:1055F00022402440184000001080204024402440D5
:105600001B80000002000D0011003FC0014000009F
:105610003C80244024402440238000001F802440FC
:1056200024403440038000003000200027C03800B0
:10563000200000001B802440244024401B800000E8
:105640001C0022C0224022401F80000000000000F9
:10565000084000000000000000000000046000009E
:1056600000000000000004000A00110020804040FB
:10567000090009000900090009000000000040407D
:10568000208011000A00040018002000234024009C
:10569000180000001F802040274029401F400000C4
:1056A000004007C039000F0001C0004020403FC04B
:1056B000244024401B8000001F80204020402040C8
:1056C0003080000020403FC0204020401F8000006C
:1056D00020403FC024402E4030C0000020403FC04A
:1056E00024402E00300000000F0010802040224097
:1056F0003380020020403FC0040004003FC020402F
:10570000204020403FC0204020400000006020207A
:1057100020203FC02000200020403FC024400B003C
:1057200030C0204020403FC020400040004000C02A
:105730003FC03C0003C03C003FC0000020403FC0D1
:105740000C4023003FC020001F802040204020400C
:105750001F80000020403FC02440240018000000AB
:105760001F802140214020E01FA0000020403FC0BA
:105770002440260019C0004018C024402440224084
:1057800031800000300020403FC020403000000049
:1057900020003F80004000403F80200020003E006D
:1057A00001C0070038002000380007C03C0007C0D7
:1057B00038000000204039C0060039C020400000F9
:1057C0002000384007C0384020000000304021C091
:1057D0002640384020C00000000000007FE040204C
:1057E00040200000000070000C000380004000001A
:1057F0000000402040207FE000000000000020006A
:1058000040002000000000000010001000100010F8
:105810000010001000000000400000000000000028
:10582000000002800540054003C0004020003FC04A
:105830000440044003800000000003800440044052
:105840000640000000000380044024403FC00040A8
:1058500000000380054005400340000000000440B4
:105860001FC0244024402000000002E005500550E5
:105870000650042020403FC00440040003C0004004
:105880000000044027C0004000000000001000108D
:10589000041027E00000000020403FC00140070046
:1058A00004C00440204020403FC0004000400000B1
:1058B00007C0040007C0040003C00000044007C084
:1058C0000440040003C00040000003800440044082
:1058D00003800000041007F004500440038000001F
:1058E000000003800440045007F00010044007C08B
:1058F000024004000400000000000640054005408E
:1059000004C00000000004001F80044000400000AC
:10591000040007800040044007C000400400070066
:1059200004C0018006000400060001C0070001C099
:1059300006000000044006C0010006C0044000004C
:105940000410071004E00180060004000000044079
:1059500005C00640044000000000000004007BE099
:1059600040200000000000000000FFF000000000E8
:10597000000040207BE004000000000040008000A8
:105980004000200020004000000000000000000057
:1059900000000000000000000000000000001FCC1C
:1059A000000C000000000000000008003000600053
:1059B0000800300060000000022003FC1E200220CE
:1059C00003FC1E200220000000000E1811043FFFFF
:1059D00010840C78000000000F0010840F3800C005
:1059E000077818840078000000780F8410C4112410
:1059F0000E9800E4008400080800680070000000B1
:105A0000000000000000000000000000000007E0AF
:105A1000181820044002000000004002200418185A
:105A200007E00000000000000240024001800FF08B
:105A300001800240024000000080008000800FF8DA
:105A400000800080008000000001000D000E0000BA
:105A500000000000000000000000008000800080C6
:105A600000800080008000800000000C000C00001E
:105A700000000000000000000000000600180060A8
:105A80000180060018002000000007F0080810043C
:105A90001004080807F000000000080408041FFCB8
:105AA000000400040000000000000E0C101410247C
:105AB000104411840E0C000000000C181004110496
:105AC000110412880C700000000000E00320042480
:105AD00008241FFC0024000000001F9810841104FB
